{
  "_format": "hh-sol-artifact-1",
  "contractName": "RACI",
  "sourceName": "contracts/RACI.sol",
  "abi": [
    {
      "inputs": [
        {
          "internalType": "address",
          "name": "initialHolder",
          "type": "address"
        },
        {
          "internalType": "address",
          "name": "initialOwner",
          "type": "address"
        }
      ],
      "stateMutability": "nonpayable",
      "type": "constructor"
    },
    {
      "inputs": [],
      "name": "ECDSAInvalidSignature",
      "type": "error"
    },
    {
      "inputs": [
        {
          "internalType": "uint256",
          "name": "length",
          "type": "uint256"
        }
      ],
      "name": "ECDSAInvalidSignatureLength",
      "type": "error"
    },
    {
      "inputs": [
        {
          "internalType": "bytes32",
          "name": "s",
          "type": "bytes32"
        }
      ],
      "name": "ECDSAInvalidSignatureS",
      "type": "error"
    },
    {
      "inputs": [
        {
          "internalType": "address",
          "name": "spender",
          "type": "address"
        },
        {
          "internalType": "uint256",
          "name": "allowance",
          "type": "uint256"
        },
        {
          "internalType": "uint256",
          "name": "needed",
          "type": "uint256"
        }
      ],
      "name": "ERC20InsufficientAllowance",
      "type": "error"
    },
    {
      "inputs": [
        {
          "internalType": "address",
          "name": "sender",
          "type": "address"
        },
        {
          "internalType": "uint256",
          "name": "balance",
          "type": "uint256"
        },
        {
          "internalType": "uint256",
          "name": "needed",
          "type": "uint256"
        }
      ],
      "name": "ERC20InsufficientBalance",
      "type": "error"
    },
    {
      "inputs": [
        {
          "internalType": "address",
          "name": "approver",
          "type": "address"
        }
      ],
      "name": "ERC20InvalidApprover",
      "type": "error"
    },
    {
      "inputs": [
        {
          "internalType": "address",
          "name": "receiver",
          "type": "address"
        }
      ],
      "name": "ERC20InvalidReceiver",
      "type": "error"
    },
    {
      "inputs": [
        {
          "internalType": "address",
          "name": "sender",
          "type": "address"
        }
      ],
      "name": "ERC20InvalidSender",
      "type": "error"
    },
    {
      "inputs": [
        {
          "internalType": "address",
          "name": "spender",
          "type": "address"
        }
      ],
      "name": "ERC20InvalidSpender",
      "type": "error"
    },
    {
      "inputs": [
        {
          "internalType": "uint256",
          "name": "deadline",
          "type": "uint256"
        }
      ],
      "name": "ERC2612ExpiredSignature",
      "type": "error"
    },
    {
      "inputs": [
        {
          "internalType": "address",
          "name": "signer",
          "type": "address"
        },
        {
          "internalType": "address",
          "name": "owner",
          "type": "address"
        }
      ],
      "name": "ERC2612InvalidSigner",
      "type": "error"
    },
    {
      "inputs": [
        {
          "internalType": "address",
          "name": "account",
          "type": "address"
        },
        {
          "internalType": "uint256",
          "name": "currentNonce",
          "type": "uint256"
        }
      ],
      "name": "InvalidAccountNonce",
      "type": "error"
    },
    {
      "inputs": [],
      "name": "InvalidShortString",
      "type": "error"
    },
    {
      "inputs": [
        {
          "internalType": "address",
          "name": "owner",
          "type": "address"
        }
      ],
      "name": "OwnableInvalidOwner",
      "type": "error"
    },
    {
      "inputs": [
        {
          "internalType": "address",
          "name": "account",
          "type": "address"
        }
      ],
      "name": "OwnableUnauthorizedAccount",
      "type": "error"
    },
    {
      "inputs": [
        {
          "internalType": "string",
          "name": "str",
          "type": "string"
        }
      ],
      "name": "StringTooLong",
      "type": "error"
    },
    {
      "anonymous": false,
      "inputs": [
        {
          "indexed": true,
          "internalType": "address",
          "name": "owner",
          "type": "address"
        },
        {
          "indexed": true,
          "internalType": "address",
          "name": "spender",
          "type": "address"
        },
        {
          "indexed": false,
          "internalType": "uint256",
          "name": "value",
          "type": "uint256"
        }
      ],
      "name": "Approval",
      "type": "event"
    },
    {
      "anonymous": false,
      "inputs": [],
      "name": "EIP712DomainChanged",
      "type": "event"
    },
    {
      "anonymous": false,
      "inputs": [
        {
          "indexed": true,
          "internalType": "address",
          "name": "previousOwner",
          "type": "address"
        },
        {
          "indexed": true,
          "internalType": "address",
          "name": "newOwner",
          "type": "address"
        }
      ],
      "name": "OwnershipTransferred",
      "type": "event"
    },
    {
      "anonymous": false,
      "inputs": [
        {
          "indexed": true,
          "internalType": "address",
          "name": "from",
          "type": "address"
        },
        {
          "indexed": true,
          "internalType": "address",
          "name": "to",
          "type": "address"
        },
        {
          "indexed": false,
          "internalType": "uint256",
          "name": "value",
          "type": "uint256"
        }
      ],
      "name": "Transfer",
      "type": "event"
    },
    {
      "inputs": [],
      "name": "DOMAIN_SEPARATOR",
      "outputs": [
        {
          "internalType": "bytes32",
          "name": "",
          "type": "bytes32"
        }
      ],
      "stateMutability": "view",
      "type": "function"
    },
    {
      "inputs": [],
      "name": "MAX_SUPPLY",
      "outputs": [
        {
          "internalType": "uint256",
          "name": "",
          "type": "uint256"
        }
      ],
      "stateMutability": "view",
      "type": "function"
    },
    {
      "inputs": [
        {
          "internalType": "address",
          "name": "owner",
          "type": "address"
        },
        {
          "internalType": "address",
          "name": "spender",
          "type": "address"
        }
      ],
      "name": "allowance",
      "outputs": [
        {
          "internalType": "uint256",
          "name": "",
          "type": "uint256"
        }
      ],
      "stateMutability": "view",
      "type": "function"
    },
    {
      "inputs": [
        {
          "internalType": "address",
          "name": "spender",
          "type": "address"
        },
        {
          "internalType": "uint256",
          "name": "value",
          "type": "uint256"
        }
      ],
      "name": "approve",
      "outputs": [
        {
          "internalType": "bool",
          "name": "",
          "type": "bool"
        }
      ],
      "stateMutability": "nonpayable",
      "type": "function"
    },
    {
      "inputs": [
        {
          "internalType": "address",
          "name": "account",
          "type": "address"
        }
      ],
      "name": "balanceOf",
      "outputs": [
        {
          "internalType": "uint256",
          "name": "",
          "type": "uint256"
        }
      ],
      "stateMutability": "view",
      "type": "function"
    },
    {
      "inputs": [
        {
          "internalType": "uint256",
          "name": "amount",
          "type": "uint256"
        }
      ],
      "name": "burn",
      "outputs": [],
      "stateMutability": "nonpayable",
      "type": "function"
    },
    {
      "inputs": [],
      "name": "decimals",
      "outputs": [
        {
          "internalType": "uint8",
          "name": "",
          "type": "uint8"
        }
      ],
      "stateMutability": "view",
      "type": "function"
    },
    {
      "inputs": [],
      "name": "eip712Domain",
      "outputs": [
        {
          "internalType": "bytes1",
          "name": "fields",
          "type": "bytes1"
        },
        {
          "internalType": "string",
          "name": "name",
          "type": "string"
        },
        {
          "internalType": "string",
          "name": "version",
          "type": "string"
        },
        {
          "internalType": "uint256",
          "name": "chainId",
          "type": "uint256"
        },
        {
          "internalType": "address",
          "name": "verifyingContract",
          "type": "address"
        },
        {
          "internalType": "bytes32",
          "name": "salt",
          "type": "bytes32"
        },
        {
          "internalType": "uint256[]",
          "name": "extensions",
          "type": "uint256[]"
        }
      ],
      "stateMutability": "view",
      "type": "function"
    },
    {
      "inputs": [],
      "name": "name",
      "outputs": [
        {
          "internalType": "string",
          "name": "",
          "type": "string"
        }
      ],
      "stateMutability": "view",
      "type": "function"
    },
    {
      "inputs": [
        {
          "internalType": "address",
          "name": "owner",
          "type": "address"
        }
      ],
      "name": "nonces",
      "outputs": [
        {
          "internalType": "uint256",
          "name": "",
          "type": "uint256"
        }
      ],
      "stateMutability": "view",
      "type": "function"
    },
    {
      "inputs": [],
      "name": "owner",
      "outputs": [
        {
          "internalType": "address",
          "name": "",
          "type": "address"
        }
      ],
      "stateMutability": "view",
      "type": "function"
    },
    {
      "inputs": [
        {
          "internalType": "address",
          "name": "owner",
          "type": "address"
        },
        {
          "internalType": "address",
          "name": "spender",
          "type": "address"
        },
        {
          "internalType": "uint256",
          "name": "value",
          "type": "uint256"
        },
        {
          "internalType": "uint256",
          "name": "deadline",
          "type": "uint256"
        },
        {
          "internalType": "uint8",
          "name": "v",
          "type": "uint8"
        },
        {
          "internalType": "bytes32",
          "name": "r",
          "type": "bytes32"
        },
        {
          "internalType": "bytes32",
          "name": "s",
          "type": "bytes32"
        }
      ],
      "name": "permit",
      "outputs": [],
      "stateMutability": "nonpayable",
      "type": "function"
    },
    {
      "inputs": [],
      "name": "renounceOwnership",
      "outputs": [],
      "stateMutability": "nonpayable",
      "type": "function"
    },
    {
      "inputs": [],
      "name": "symbol",
      "outputs": [
        {
          "internalType": "string",
          "name": "",
          "type": "string"
        }
      ],
      "stateMutability": "view",
      "type": "function"
    },
    {
      "inputs": [],
      "name": "totalSupply",
      "outputs": [
        {
          "internalType": "uint256",
          "name": "",
          "type": "uint256"
        }
      ],
      "stateMutability": "view",
      "type": "function"
    },
    {
      "inputs": [
        {
          "internalType": "address",
          "name": "to",
          "type": "address"
        },
        {
          "internalType": "uint256",
          "name": "value",
          "type": "uint256"
        }
      ],
      "name": "transfer",
      "outputs": [
        {
          "internalType": "bool",
          "name": "",
          "type": "bool"
        }
      ],
      "stateMutability": "nonpayable",
      "type": "function"
    },
    {
      "inputs": [
        {
          "internalType": "address",
          "name": "from",
          "type": "address"
        },
        {
          "internalType": "address",
          "name": "to",
          "type": "address"
        },
        {
          "internalType": "uint256",
          "name": "value",
          "type": "uint256"
        }
      ],
      "name": "transferFrom",
      "outputs": [
        {
          "internalType": "bool",
          "name": "",
          "type": "bool"
        }
      ],
      "stateMutability": "nonpayable",
      "type": "function"
    },
    {
      "inputs": [
        {
          "internalType": "address",
          "name": "newOwner",
          "type": "address"
        }
      ],
      "name": "transferOwnership",
      "outputs": [],
      "stateMutability": "nonpayable",
      "type": "function"
    }
  ],
  "bytecode": "0x6101606040523480156200001257600080fd5b50604051620017ad380380620017ad833981016040819052620000359162000448565b806040518060400160405280600a8152602001692920a1a4902a37b5b2b760b11b81525080604051806040016040528060018152602001603160f81b8152506040518060400160405280600a8152602001692920a1a4902a37b5b2b760b11b815250604051806040016040528060048152602001635241434960e01b8152508160039081620000c5919062000525565b506004620000d4828262000525565b50620000e691508390506005620001ec565b61012052620000f7816006620001ec565b61014052815160208084019190912060e052815190820120610100524660a0526200018560e05161010051604080517f8b73c3c69bb8fe3d512ecc4cf759cc79239f7b179b0ffacaa9a75d522b39400f60208201529081019290925260608201524660808201523060a082015260009060c00160405160208183030381529060405280519060200120905090565b60805250503060c052506001600160a01b038116620001bf57604051631e4fbdf760e01b8152600060048201526024015b60405180910390fd5b620001ca8162000225565b50620001e4826c01431e0fae6d7217caa000000062000277565b505062000688565b60006020835110156200020c576200020483620002b5565b90506200021f565b8162000219848262000525565b5060ff90505b92915050565b600880546001600160a01b038381166001600160a01b0319831681179093556040519116919082907f8be0079c531659141344cd1fd0a4f28419497f9722a3daafe3b4186f6b6457e090600090a35050565b6001600160a01b038216620002a35760405163ec442f0560e01b815260006004820152602401620001b6565b620002b160008383620002f8565b5050565b600080829050601f81511115620002e3578260405163305a27a960e01b8152600401620001b69190620005f1565b8051620002f08262000641565b179392505050565b6001600160a01b038316620003275780600260008282546200031b919062000666565b909155506200039b9050565b6001600160a01b038316600090815260208190526040902054818110156200037c5760405163391434e360e21b81526001600160a01b03851660048201526024810182905260448101839052606401620001b6565b6001600160a01b03841660009081526020819052604090209082900390555b6001600160a01b038216620003b957600280548290039055620003d8565b6001600160a01b03821660009081526020819052604090208054820190555b816001600160a01b0316836001600160a01b03167fddf252ad1be2c89b69c2b068fc378daa952ba7f163c4a11628f55a4df523b3ef836040516200041e91815260200190565b60405180910390a3505050565b80516001600160a01b03811681146200044357600080fd5b919050565b600080604083850312156200045c57600080fd5b62000467836200042b565b915062000477602084016200042b565b90509250929050565b634e487b7160e01b600052604160045260246000fd5b600181811c90821680620004ab57607f821691505b602082108103620004cc57634e487b7160e01b600052602260045260246000fd5b50919050565b601f8211156200052057600081815260208120601f850160051c81016020861015620004fb5750805b601f850160051c820191505b818110156200051c5782815560010162000507565b5050505b505050565b81516001600160401b0381111562000541576200054162000480565b620005598162000552845462000496565b84620004d2565b602080601f831160018114620005915760008415620005785750858301515b600019600386901b1c1916600185901b1785556200051c565b600085815260208120601f198616915b82811015620005c257888601518255948401946001909101908401620005a1565b5085821015620005e15787850151600019600388901b60f8161c191681555b5050505050600190811b01905550565b600060208083528351808285015260005b81811015620006205785810183015185820160400152820162000602565b506000604082860101526040601f19601f8301168501019250505092915050565b80516020808301519190811015620004cc5760001960209190910360031b1b16919050565b808201808211156200021f57634e487b7160e01b600052601160045260246000fd5b60805160a05160c05160e0516101005161012051610140516110ca620006e360003960006108b70152600061088a0152600061077901526000610751015260006106ac015260006106d60152600061070001526110ca6000f3fe608060405234801561001057600080fd5b50600436106101165760003560e01c8063715018a6116100a257806395d89b411161007157806395d89b411461023b578063a9059cbb14610243578063d505accf14610256578063dd62ed3e14610269578063f2fde38b146102a257600080fd5b8063715018a6146101ea5780637ecebe00146101f257806384b0196e146102055780638da5cb5b1461022057600080fd5b8063313ce567116100e9578063313ce5671461018157806332cb6b0c146101905780633644e515146101a457806342966c68146101ac57806370a08231146101c157600080fd5b806306fdde031461011b578063095ea7b31461013957806318160ddd1461015c57806323b872dd1461016e575b600080fd5b6101236102b5565b6040516101309190610e17565b60405180910390f35b61014c610147366004610e4d565b610347565b6040519015158152602001610130565b6002545b604051908152602001610130565b61014c61017c366004610e77565b610361565b60405160128152602001610130565b6101606c01431e0fae6d7217caa000000081565b610160610385565b6101bf6101ba366004610eb3565b610394565b005b6101606101cf366004610ecc565b6001600160a01b031660009081526020819052604090205490565b6101bf6103a1565b610160610200366004610ecc565b6103b5565b61020d6103d3565b6040516101309796959493929190610ee7565b6008546040516001600160a01b039091168152602001610130565b610123610419565b61014c610251366004610e4d565b610428565b6101bf610264366004610f7d565b610436565b610160610277366004610ff0565b6001600160a01b03918216600090815260016020908152604080832093909416825291909152205490565b6101bf6102b0366004610ecc565b610575565b6060600380546102c490611023565b80601f01602080910402602001604051908101604052809291908181526020018280546102f090611023565b801561033d5780601f106103125761010080835404028352916020019161033d565b820191906000526020600020905b81548152906001019060200180831161032057829003601f168201915b5050505050905090565b6000336103558185856105b0565b60019150505b92915050565b60003361036f8582856105c2565b61037a858585610640565b506001949350505050565b600061038f61069f565b905090565b61039e33826107ca565b50565b6103a9610804565b6103b36000610831565b565b6001600160a01b03811660009081526007602052604081205461035b565b6000606080600080600060606103e7610883565b6103ef6108b0565b60408051600080825260208201909252600f60f81b9b939a50919850469750309650945092509050565b6060600480546102c490611023565b600033610355818585610640565b8342111561045f5760405163313c898160e11b8152600481018590526024015b60405180910390fd5b60007f6e71edae12b1b97f4d1f60370fef10105fa2faae0126114a169c64845d6126c98888886104ac8c6001600160a01b0316600090815260076020526040902080546001810190915590565b6040805160208101969096526001600160a01b0394851690860152929091166060840152608083015260a082015260c0810186905260e0016040516020818303038152906040528051906020012090506000610507826108dd565b905060006105178287878761090a565b9050896001600160a01b0316816001600160a01b03161461055e576040516325c0072360e11b81526001600160a01b0380831660048301528b166024820152604401610456565b6105698a8a8a6105b0565b50505050505050505050565b61057d610804565b6001600160a01b0381166105a757604051631e4fbdf760e01b815260006004820152602401610456565b61039e81610831565b6105bd8383836001610938565b505050565b6001600160a01b03838116600090815260016020908152604080832093861683529290522054600019811461063a578181101561062b57604051637dc7a0d960e11b81526001600160a01b03841660048201526024810182905260448101839052606401610456565b61063a84848484036000610938565b50505050565b6001600160a01b03831661066a57604051634b637e8f60e11b815260006004820152602401610456565b6001600160a01b0382166106945760405163ec442f0560e01b815260006004820152602401610456565b6105bd838383610a0d565b6000306001600160a01b037f0000000000000000000000000000000000000000000000000000000000000000161480156106f857507f000000000000000000000000000000000000000000000000000000000000000046145b1561072257507f000000000000000000000000000000000000000000000000000000000000000090565b61038f604080517f8b73c3c69bb8fe3d512ecc4cf759cc79239f7b179b0ffacaa9a75d522b39400f60208201527f0000000000000000000000000000000000000000000000000000000000000000918101919091527f000000000000000000000000000000000000000000000000000000000000000060608201524660808201523060a082015260009060c00160405160208183030381529060405280519060200120905090565b6001600160a01b0382166107f457604051634b637e8f60e11b815260006004820152602401610456565b61080082600083610a0d565b5050565b6008546001600160a01b031633146103b35760405163118cdaa760e01b8152336004820152602401610456565b600880546001600160a01b038381166001600160a01b0319831681179093556040519116919082907f8be0079c531659141344cd1fd0a4f28419497f9722a3daafe3b4186f6b6457e090600090a35050565b606061038f7f00000000000000000000000000000000000000000000000000000000000000006005610b37565b606061038f7f00000000000000000000000000000000000000000000000000000000000000006006610b37565b600061035b6108ea61069f565b8360405161190160f01b8152600281019290925260228201526042902090565b60008060008061091c88888888610be2565b92509250925061092c8282610cb1565b50909695505050505050565b6001600160a01b0384166109625760405163e602df0560e01b815260006004820152602401610456565b6001600160a01b03831661098c57604051634a1406b160e11b815260006004820152602401610456565b6001600160a01b038085166000908152600160209081526040808320938716835292905220829055801561063a57826001600160a01b0316846001600160a01b03167f8c5be1e5ebec7d5bd14f71427d1e84f3dd0314c0f7b2291e5b200ac8c7c3b925846040516109ff91815260200190565b60405180910390a350505050565b6001600160a01b038316610a38578060026000828254610a2d919061105d565b90915550610aaa9050565b6001600160a01b03831660009081526020819052604090205481811015610a8b5760405163391434e360e21b81526001600160a01b03851660048201526024810182905260448101839052606401610456565b6001600160a01b03841660009081526020819052604090209082900390555b6001600160a01b038216610ac657600280548290039055610ae5565b6001600160a01b03821660009081526020819052604090208054820190555b816001600160a01b0316836001600160a01b03167fddf252ad1be2c89b69c2b068fc378daa952ba7f163c4a11628f55a4df523b3ef83604051610b2a91815260200190565b60405180910390a3505050565b606060ff8314610b5157610b4a83610d6a565b905061035b565b818054610b5d90611023565b80601f0160208091040260200160405190810160405280929190818152602001828054610b8990611023565b8015610bd65780601f10610bab57610100808354040283529160200191610bd6565b820191906000526020600020905b815481529060010190602001808311610bb957829003601f168201915b5050505050905061035b565b600080807f7fffffffffffffffffffffffffffffff5d576e7357a4501ddfe92f46681b20a0841115610c1d5750600091506003905082610ca7565b604080516000808252602082018084528a905260ff891692820192909252606081018790526080810186905260019060a0016020604051602081039080840390855afa158015610c71573d6000803e3d6000fd5b5050604051601f1901519150506001600160a01b038116610c9d57506000925060019150829050610ca7565b9250600091508190505b9450945094915050565b6000826003811115610cc557610cc561107e565b03610cce575050565b6001826003811115610ce257610ce261107e565b03610d005760405163f645eedf60e01b815260040160405180910390fd5b6002826003811115610d1457610d1461107e565b03610d355760405163fce698f760e01b815260048101829052602401610456565b6003826003811115610d4957610d4961107e565b03610800576040516335e2f38360e21b815260048101829052602401610456565b60606000610d7783610da9565b604080516020808252818301909252919250600091906020820181803683375050509182525060208101929092525090565b600060ff8216601f81111561035b57604051632cd44ac360e21b815260040160405180910390fd5b6000815180845260005b81811015610df757602081850181015186830182015201610ddb565b506000602082860101526020601f19601f83011685010191505092915050565b602081526000610e2a6020830184610dd1565b9392505050565b80356001600160a01b0381168114610e4857600080fd5b919050565b60008060408385031215610e6057600080fd5b610e6983610e31565b946020939093013593505050565b600080600060608486031215610e8c57600080fd5b610e9584610e31565b9250610ea360208501610e31565b9150604084013590509250925092565b600060208284031215610ec557600080fd5b5035919050565b600060208284031215610ede57600080fd5b610e2a82610e31565b60ff60f81b881681526000602060e081840152610f0760e084018a610dd1565b8381036040850152610f19818a610dd1565b606085018990526001600160a01b038816608086015260a0850187905284810360c0860152855180825283870192509083019060005b81811015610f6b57835183529284019291840191600101610f4f565b50909c9b505050505050505050505050565b600080600080600080600060e0888a031215610f9857600080fd5b610fa188610e31565b9650610faf60208901610e31565b95506040880135945060608801359350608088013560ff81168114610fd357600080fd5b9699959850939692959460a0840135945060c09093013592915050565b6000806040838503121561100357600080fd5b61100c83610e31565b915061101a60208401610e31565b90509250929050565b600181811c9082168061103757607f821691505b60208210810361105757634e487b7160e01b600052602260045260246000fd5b50919050565b8082018082111561035b57634e487b7160e01b600052601160045260246000fd5b634e487b7160e01b600052602160045260246000fdfea26469706673582212201d5b74e1a8fa6873249ccac819fc8e2f48fc06e55a4d64d1016e3541c1acc45364736f6c63430008140033",
  "linkReferences": {},
  "deployedLinkReferences": {}
}